:100000000C942A000C9434000C9434000C943400AA
:100010000C9434000C9434000C9434000C94340090
:100020000C9434000C9434000C9434000C94340080
:100030000C9434000C9434000C9434000C94340070
:100040000C9434000C9434000C9434000C94340060
:100050000C94340011241FBECFE5D4E0DEBFCDBF29
:100060000E9436000C94C6010C940000CF93DF93DD
:1000700000D000D01F92CDB7DEB7CE0101960E940E
:100080004D0043E466E070E0CE0101960E94550009
:10009000CE0101960E940B01FBCFFC011182108260
:1000A0001382128280E384830895FC017383628348
:1000B0004483443409F450C038F4423439F1C8F56B
:1000C000413409F0A7C00FC0423609F46BC020F4D8
:1000D000413609F09FC053C0433609F476C0443618
:1000E00009F098C085C081E08ABB82E08ABB84E0C9
:1000F0008ABB88E08ABB80E18ABB80E28ABB87E05A
:1001000090E09383828380E48ABB089581E087BB7B
:1001100082E087BB84E087BB88E087BB80E187BB48
:1001200080E287BB87E090E09383828380E487BB93
:10013000089581E084BB82E084BB84E084BB88E0D6
:1001400084BB80E184BB80E284BB87E090E0938342
:10015000828380E484BB089581E081BB82E081BB1F
:1001600084E081BB88E081BB80E181BB80E281BB10
:1001700087E090E09383828380E481BB089581E0EF
:100180008ABB82E08ABB84E08ABB88E08ABB80E1CC
:100190008ABB80E28ABB87E090E09383828380E41D
:1001A0008ABB089581E087BB82E087BB84E087BB80
:1001B00088E087BB80E187BB80E287BB87E090E077
:1001C0009383828380E487BB089581E084BB82E0CF
:1001D00084BB84E084BB88E084BB80E184BB80E492
:1001E00084BB87E090E09383828380E884BB08959A
:1001F00081E081BB82E081BB84E081BB88E081BB80
:1002000080E181BB80E281BB87E090E093838283C1
:1002100080E481BB0895FC012481243409F452C098
:1002200038F4223441F1D8F5213409F0AEC00FC0C2
:10023000223609F46FC020F4213609F0A6C056C05A
:10024000233609F47BC0243609F09FC08BC021E01F
:100250002ABB22E02ABB24E02ABB28E02ABB20E1FB
:100260002ABB20E22ABB27E030E0FC013383228353
:1002700080E48ABB089521E027BB22E027BB24E06D
:1002800027BB28E027BB20E127BB20E227BB27E0D4
:1002900030E0FC013383228380E487BB089521E0B2
:1002A00024BB22E024BB24E024BB28E024BB20E1C3
:1002B00024BB40E445BB27E030E0FC0133832283CC
:1002C00044BB089521E021BB22E021BB24E021BBF7
:1002D00028E021BB20E121BB20E221BB27E030E068
:1002E000FC013383228380E481BB089521E02ABB93
:1002F00022E02ABB24E02ABB28E02ABB20E12ABB5B
:1003000020E22ABB27E030E0FC013383228380E433
:100310008ABB089521E027BB22E027BB24E027BB4E
:1003200028E027BB20E127BB20E227BB27E030E005
:10033000FC013383228380E487BB089521E024BB42
:1003400022E024BB24E024BB28E024BB20E124BB22
:1003500020E224BB27E030E0FC013383228380E4E9
:1003600084BB089521E021BB22E021BB24E021BB16
:1003700028E021BB20E121BB20E221BB27E030E0C7
:10038000FC013383228380E481BB0895F894FFCF7E
:00000001FF
