:100000000C942A000C9434000C9434000C943400AA
:100010000C9434000C9434000C9434000C94340090
:100020000C9434000C9434000C9434000C94340080
:100030000C9434000C9434000C9434000C94340070
:100040000C9434000C9434000C9434000C94340060
:100050000C94340011241FBECFE5D4E0DEBFCDBF29
:100060000E9436000C9483000C940000CF93DF9321
:1000700000D000D01F92CDB7DEB7CE0101960E940E
:100080004C0043E466E070E0CE0101960E9454000B
:1000900080E484BB85BBFECFFC01118210821382F9
:1000A000128280E384830895FC0173836283448316
:1000B000433419F0433631F513C081E084BB82E04C
:1000C00084BB84E084BB88E084BB80E184BB80E4A3
:1000D00084BB87E090E09383828380E884BB0895AB
:1000E00081E084BB82E084BB84E084BB88E084BB85
:1000F00080E184BB80E484BB87E090E093838283CB
:0A01000080E884BB0895F894FFCF57
:00000001FF
