S00D00004E41554B412E73726563A7
S11300000C942A000C9434000C9434000C943400A6
S11300100C9434000C9434000C9434000C9434008C
S11300200C9434000C9434000C9434000C9434007C
S11300300C9434000C9434000C9434000C9434006C
S11300400C9434000C9434000C9434000C9434005C
S11300500C94340011241FBECFE5D4E0DEBFCDBF25
S11300600E946F000C9476000C94000028E10FB6F7
S1130070F89421BD11BC0FBE20E030E0F82FFE5FE4
S1130080E1E0A0E0C62FB72F02C02C2F3B2FF5BB19
S11300901FE35DE0D3E011505040D040E1F700C0D1
S11300A000005E2F009709F05A2F55BB1FE35DE057
S11300B0D3E011505040D040E1F700C000002F5F62
S11300C03F4F2617370719F7493511F04937E9F635
S11300D015BAFECF8FEF84BB81E090E008950E94B3
S11300E06A0049E763E070E00E943600F894FFCFAD
S9030000FC
