S00D00004E41554B412E73726563A7
S11300000C942A000C9434000C9434000C943400A6
S11300100C9434000C9434000C9434000C9434008C
S11300200C9434000C9434000C9434000C9434007C
S11300300C9434000C9434000C9434000C9434006C
S11300400C9434000C9434000C9434000C9434005C
S11300500C94340011241FBECFE5D4E0DEBFCDBF25
S11300600E9454000C945D000C94000085BB2FE3A7
S11300708DE093E0215080409040E1F700C0000003
S1130080A89A2FE38DE093E0215080409040E1F75F
S113009000C000006130710531F4493511F0493771
S11300A0C9F715BAFECFFFCF8FEF84BB49E762E0F3
S11100B070E081E090E00E943600F894FFCFEB
S9030000FC
