S00D00004E41554B412E73726563A7
S11300000C942A000C9434000C9434000C943400A6
S11300100C9434000C9434000C9434000C9434008C
S11300200C9434000C9434000C9434000C9434007C
S11300300C9434000C9434000C9434000C9434006C
S11300400C9434000C9434000C9434000C9434005C
S11300500C94340011241FBECFE5D4E0DEBFCDBF25
S11300600E9460000C9472000C940000FC0120E0DB
S113007030E0562F972F02C0252F392F808185BB62
S11300808FE3ADE0B3E08150A040B040E1F700C0A1
S113009000008081880F85BB8FE3ADE0B3E0815021
S11300A0A040B040E1F700C000002F5F3F4F62174F
S11300B0730721F7493511F04937F1F615BAFECF28
S11300C0CF93DF9300D0CDB7DEB781E090E09A8381
S11300D089838FEF84BB49E566E070E0CE01019629
S10B00E00E943600F894FFCFE2
S9030000FC
