S00D000074696D65722E73726563F6
S11300000C942A000C9434000C9434000C943400A6
S11300100C9434000C9434000C9434000C9434008C
S11300200C9434000C9434000C9434000C9434007C
S11300300C9434000C9434000C9434000C9434006C
S11300400C9434000C9434000C9434000C9434005C
S11300500C94340011241FBECFE5D4E0DEBFCDBF25
S11300600E9436000C9445000C940000A09A17BA24
S113007083B7856083BF91E082B7803EE8F385B3A0
S1110080892785BB1DBC1CBCF7CFF894FFCFAD
S9030000FC
