:100000000C942A000C9434000C9434000C943400AA
:100010000C9434000C9434000C9434000C94340090
:100020000C9434000C9434000C9434000C94340080
:100030000C9434000C9434000C9434000C94340070
:100040000C9434000C9434000C9434000C94340060
:100050000C94340011241FBECFE5D4E0DEBFCDBF29
:100060000E9436000C944F000C940000A09A17BA1E
:1000700083B7856083BF80E090E031E022B7203E07
:1000800018F01DBC1CBC01968C34910521F425B3DD
:10009000232725BBF3CF25B3232725BBEFCFF89428
:0200A000FFCF90
:00000001FF
